:100000000C942A000C9434000C9434000C943400AA
:100010000C9434000C9434000C9434000C94340090
:100020000C9434000C9434000C9434000C94340080
:100030000C9434000C9434000C9434000C94340070
:100040000C9434000C9434000C9434000C94340060
:100050000C94340011241FBECFE5D8E0DEBFCDBF25
:100060000E94A3000C9457010C9400008430910569
:1000700009F43CC08530910584F48130910539F153
:10008000823091051CF4892BD9F0089582309105B6
:1000900001F1039709F04FC022C087309105A1F10B
:1000A000883091053CF48530910529F1069709F0D7
:1000B00042C027C08830910579F10997E1F534C035
:1000C000D89AD99ADA9ADB9ADC9ADD9A23C0D89822
:1000D0001CC0D89AD99ADA98DB9ADC9A05C0D89ACB
:1000E000D99ADA9ADB9ADC98DD981CC0D898D99A0C
:1000F000DA9ADB9804C0D89AD998DA9ADB9ADC9815
:1001000010C0D89AD9980AC0D89AD99ADA9ADB98A6
:10011000DC98DD98DE980895D89AD99ADA9ADB9A15
:10012000DC9ADD9ADE9A0895D89AD99ADA9ADB9AFF
:10013000DC98DD9ADE9A0895369A3699FECF24B17E
:1001400035B1C90108954F925F926F927F928F925D
:100150009F92AF92BF92CF92DF92EF92FF920F9356
:100160001F93CF93DF93A59AD09AD19AD29AD39A1C
:10017000D49AD59AD69AA39AA29AA19AA09A3E9A6C
:1001800087B1876087B9379A86B1836086B938E1CD
:10019000432E3CEF532E2CE9622E2FEF722E90E26D
:1001A000A92E9EE4B92E86EF882E8FEF982E369AD0
:1001B0003699FECFC4B1D5B182E0C030D80714F46F
:1001C000AD9A01C0AD98CE0168EE73E00E94300197
:1001D000FB01649D9001659D300D749D300D1124CF
:1001E0002C0F3D1FC90164E670E00E9430018B01B5
:1001F000669D6001679DD00C769DD00C1124C20EC7
:10020000D31EC6016AE070E00E9430017B01AB9A08
:10021000CF010E943600C5010197F1F7AB98AA9A69
:10022000C8010E943600C5010197F1F7AA98A99A62
:10023000C7010E943600C5010197F1F7A998A89A55
:10024000E89CC001E99C900DF89C900D11248C0D48
:100250009D1D0E943600C5010197F1F7A898A7CF10
:1002600097FB092E07260AD077FD04D00CD006D0C4
:1002700000201AF4709561957F4F0895F6F79095D8
:1002800081959F4F0895AA1BBB1B51E107C0AA1F70
:10029000BB1FA617B70710F0A61BB70B881F991F27
:1002A0005A95A9F780959095BC01CD010895F894D1
:0202B000FFCF7E
:00000001FF
