:100000000C942A000C94A7000C94C5000C943F009B
:100010000C943F000C943F000C943F000C943F0064
:100020000C943F000C943F000C943F000C943F0054
:100030000C943F000C943F000C943F000C943F0044
:100040000C943F000C943F000C943F000C943F0034
:100050000C943F0011241FBECFE5D8E0DEBFCDBF1A
:1000600010E0A0E6B0E0E8EFF1E002C005900D92EC
:10007000A236B107D9F70E94DF000C94FA000C9465
:1000800000008430910509F43CC08530910584F46A
:100090008130910539F1823091051CF4892BD9F01A
:1000A00008958230910501F1039709F04FC022C0F5
:1000B00087309105A1F1883091053CF48530910598
:1000C00029F1069709F042C027C08830910579F1DF
:1000D0000997E1F534C0D89AD99ADA9ADB9ADC9A72
:1000E000DD9A23C0D8981CC0D89AD99ADA98DB9A9E
:1000F000DC9A05C0D89AD99ADA9ADB9ADC98DD980E
:100100001CC0D898D99ADA9ADB9804C0D89AD998A2
:10011000DA9ADB9ADC9810C0D89AD9980AC0D89A93
:10012000D99ADA9ADB98DC98DD98DE980895D89A07
:10013000D99ADA9ADB9ADC9ADD9ADE9A0895D89AEF
:10014000D99ADA9ADB9ADC98DD9ADE9A08951F92A2
:100150000F920FB60F9211248F939F93809160009E
:1001600090916100009729F4109261001092600054
:1001700005C0019790936100809360009F918F91DB
:100180000F900FBE0F901F9018951F920F920FB6F1
:100190000F9211248F939F93809160009091610042
:1001A0008930910529F00196909361008093600059
:1001B0009F918F910F900FBE0F901F901895D09A1E
:1001C000D19AD29AD39AD49AD59AD69A789485B756
:1001D000826085BF8BB780648BBF85B7886085BF21
:1001E0008BB780688BBF80916000909161000E9406
:0801F0004100F9CFF894FFCFA4
:0201F800050000
:00000001FF
