:100000000C942A000C9434000C9434000C943400AA
:100010000C9434000C9434000C9434000C94340090
:100020000C9434000C9434000C9434000C94340080
:100030000C9434000C9434000C9434000C94340070
:100040000C9434000C9434000C9434000C94340060
:100050000C94340011241FBECFE5D8E0DEBFCDBF25
:100060000E9436000C94D3000C940000D09AD19AD0
:10007000D29AD39AD49AD59AD69AD79AB898B99848
:10008000BA98BB98BC98BD98BE98BF988898899834
:10009000C09AC19AC29AC39AC49AC59AC69AC79A74
:1000A000909A919A06C0D89AD99ADA9ADB9ADC9AF1
:1000B000DD9AB09BF8CFD898D998DA98DB98DC987D
:1000C000DD9802C0D99ADA9AB19BFCCFD998DA9818
:1000D00005C0D89AD99ADB9ADC9ADE9AB29BF9CFFE
:1000E000D898D998DB98DC98DE9805C0D89AD99A28
:1000F000DA9ADB9ADE9AB39BF9CFD898D998DA9836
:10010000DB98DE9804C0D99ADA9ADD9ADE9AB49B1D
:10011000FACFD998DA98DD98DE9805C0D89ADA9A9D
:10012000DB9ADD9ADE9AB59BF9CFD898DA98DB98FE
:10013000DD98DE9806C0D89ADA9ADB9ADC9ADD9AC6
:10014000DE9AB69BF8CFD898DA98DB98DC98DD98E1
:10015000DE9803C0D89AD99ADA9AB79BFBCFD89881
:10016000D998DA9807C0D89AD99ADA9ADB9ADC9AA1
:10017000DD9ADE9A809BF7CFD898D998DA98DB98E9
:10018000DC98DD98DE9806C0D89AD99ADA9ADB9A7C
:10019000DD9ADE9A819BF8CFD898D998DA98DB98C7
:0A01A000DD98DE9886CFF894FFCFBB
:00000001FF
