:100000000C942A000C9493000C94AB000C944700C1
:100010000C9447000C9447000C9447000C94470044
:100020000C9447000C9447000C9447000C94C400B7
:100030000C9447000C9447000C9447000C94470024
:100040000C9447000C9447000C9447000C94470014
:100050000C94470011241FBECFE5D8E0DEBFCDBF12
:1000600010E0A0E6B0E0E8E8F3E002C005900D92F1
:10007000A236B107D9F710E0A2E6B0E001C01D92A8
:10008000A836B107E1F70E9413010C94C2010C9449
:1000900000008FE787BB18BA089518BA0895843016
:1000A000910561F1853091057CF48130910501F174
:1000B000823091051CF4892BC9F008958230910596
:1000C000C9F0039741F518C087309105E9F08830F1
:1000D000910534F48530910599F00697E1F412C04A
:1000E0008830910599F00997B1F413C08FE30FC0E0
:1000F00086E00DC08BE50BC08FE409C086E607C023
:100100008DE605C08DE703C087E001C08FE788BB9F
:1001100008958FE688BB0895369A3699FECF24B1AC
:1001200035B1C90108951F920F920FB60F92112495
:100130008F939F93109263001092620081E090E091
:1001400090936500809364009F918F910F900FBEF4
:100150000F901F9018951F920F920FB60F921124B7
:100160008F939F9381E090E090936300809362006F
:100170001092650010926400D8989F918F910F9013
:100180000FBE0F901F9018951F920F920FB60F92EF
:1001900011242F933F938F939F9385E082BF80918B
:1001A00060009091610001979093610080936000DE
:1001B000019681F52091640030916500211531058B
:1001C00059F08091660090916700009729F001979F
:1001D00090936700809366008AEF90E090936100AF
:1001E000809360008091660090916700892B91F464
:1001F0002130310579F48091620090916300892B60
:1002000049F43093630020936200109265001092CD
:100210006400D89A9F918F913F912F910F900FBEBC
:100220000F901F901895AF92BF92CF92DF92EF92EE
:10023000FF920F931F93CF93DF933E9A87B187600E
:1002400087B9379A86B1836086B9789485B782601A
:1002500085BF8BB780648BBF85B7886085BF8BB740
:1002600080688BBFD09A84B38F6084BB83B784606F
:1002700083BF85E082BF89B7816089BF8FE787BB75
:1002800018BA94E6A92EB12CC0E0DAEF8CE9C82E9A
:100290008FEFD82E8091640090916500892BA1F496
:1002A000369A3699FECF84B195B16AE070E00E942B
:1002B0009B0170936700609366006536710524F0BA
:1002C000B0926700A0926600E0906600F090670030
:1002D000C70164E670E00E949B018B01AB9ACB01E1
:1002E0000E944F00CE010197F1F718BAAB98AA9A75
:1002F0000C9DC0010D9D900D1C9D900D11248E0D27
:100300009F1D6AE070E00E949B01CB010E944F009C
:10031000CE010197F1F718BAAA98A99AC7016AE025
:1003200070E00E949B010E944F00CE010197F1F7FF
:1003300018BAA998AFCF97FB092E07260AD077FDE8
:1003400004D00CD006D000201AF4709561957F4F30
:100350000895F6F7909581959F4F0895AA1BBB1BB2
:1003600051E107C0AA1FBB1FA617B70710F0A61BB5
:10037000B70B881F991F5A95A9F780959095BC01D6
:08038000CD010895F894FFCFB0
:02038800FA0079
:040000050080006413
:00000001FF
